:0400000007EF00F016
:0A00080060820BED08F0ADEF0DF083
:10100000003738392F3435362A3132332D23303DED
:051010002B2569000022
:101016000600FACF4FF0FBCF50F0F2A815EF08F01C
:1010260017EF08F020EF08F0F2A21CEF08F01EEF11
:1010360008F020EF08F0F6EC0DF0F0A625EF08F02A
:1010460027EF08F030EF08F0F0A02CEF08F02EEFB5
:1010560008F030EF08F0DFEC0DF0F0A835EF08F0FF
:1010660037EF08F040EF08F0F0A23CEF08F03EEF53
:1010760008F040EF08F0C8EC0DF0F2A645EF08F0D6
:1010860047EF08F062EF08F0F2A04CEF08F04EEFE1
:1010960008F062EF08F081A853EF08F055EF08F06A
:1010A60062EF08F02204D8A45BEF08F05DEF08F0C9
:1010B60062EF08F0000E226E010ED2EC0EF0F2A6E0
:1010C60067EF08F069EF08F084EF08F0F2A06EEF22
:1010D60008F070EF08F084EF08F081B875EF08F0BB
:1010E60077EF08F084EF08F02250D8A47DEF08F0DF
:1010F6007FEF08F084EF08F0010E226E000ED2ECAE
:101106000EF0F2A689EF08F08BEF08F0A6EF08F0D4
:10111600F2A090EF08F092EF08F0A6EF08F081AA8F
:1011260097EF08F099EF08F0A6EF08F02104D8A48D
:101136009FEF08F0A1EF08F0A6EF08F0000E216E71
:10114600010EC5EC0EF0F2A6ABEF08F0ADEF08F01D
:10115600C8EF08F0F2A0B2EF08F0B4EF08F0C8EF5D
:1011660008F081BAB9EF08F0BBEF08F0C8EF08F055
:101176002150D8A4C1EF08F0C3EF08F0C8EF08F07B
:10118600010E216E000EC5EC0EF0F2A6CDEF08F0B2
:10119600CFEF08F0EAEF08F0F2A0D4EF08F0D6EFB0
:1011A60008F0EAEF08F081ACDBEF08F0DDEF08F0BD
:1011B600EAEF08F02004D8A4E3EF08F0E5EF08F022
:1011C600EAEF08F0000E206E010EB8EC0EF0F2A663
:1011D600EFEF08F0F1EF08F00CEF09F0F2A0F6EFF0
:1011E60008F0F8EF08F00CEF09F081BCFDEF08F00D
:1011F600FFEF08F00CEF09F02050D8A405EF09F036
:1012060007EF09F00CEF09F0010E206E000EB8ECA6
:101216000EF0F2A611EF09F013EF09F02EEF09F028
:10122600F2A018EF09F01AEF09F02EEF09F081AEDF
:101236001FEF09F021EF09F02EEF09F01F04D8A4E3
:1012460027EF09F029EF09F02EEF09F0000E1F6EC7
:10125600010EABEC0EF0F2A633EF09F035EF09F014
:1012660050EF09F0F2A03AEF09F03CEF09F050EF29
:1012760009F081BE41EF09F043EF09F050EF09F0A4
:101286001F50D8A449EF09F04BEF09F050EF09F0D1
:10129600010E1F6E000EABEC0EF050C0FBFF4FC0F0
:1012A600FAFF60921100010E576E5150D8B45EEFEE
:1012B60009F060EF09F070EF09F05150D96EDA6A63
:1012C600DF30E832E832070B526E070E52646EEFDB
:1012D60009F070EF09F0C7EF09F0000E576EE7EF5F
:1012E60009F05150D96EDA6ADF30E832E832070B7E
:1012F600526E010E536E522A83EF09F0D890533680
:10130600522E81EF09F05350FF0A546E5150D96E98
:10131600DA6ADF50070B020DF350150FD96EDA6A41
:10132600DECF55F0DDCF56F055C0D9FF56C0DAFFF7
:101336005450DF16E7EF09F05150D96EDA6ADF3004
:10134600E832E832070B526E010E536E522AAEEFA8
:1013560009F0D8905336522EACEF09F05150D96EA1
:10136600DA6ADF50070B020DF350150FD96EDA6AF1
:10137600DECF54F0DDCF55F054C0D9FF55C0DAFFAB
:101386005350DF12E7EF09F05150D96EDA6ADFBC2D
:10139600CFEF09F0D2EF09F0010ED3EF09F0000EFE
:1013A600526E536A5350000AD8B4DCEF09F070EF5E
:1013B60009F05250000AD8B474EF09F0010AD8B403
:1013C6009FEF09F070EF09F0575012005150D8A462
:1013D600EFEF09F0F1EF09F057EF0AF0000E546E47
:1013E60075EF0AF05150D96EDA6A010ED926DF5030
:1013F600D8A400EF0AF002EF0AF005EF0AF0F19C1C
:1014060013EF0AF05150D96EDA6A010ED926DE04BE
:10141600D8A410EF0AF012EF0AF013EF0AF0F18CDD
:10142600010E546E75EF0AF05150D96EDA6A010E4C
:10143600D926DF50D8A422EF0AF024EF0AF027EFCE
:101446000AF0F19A13EF0AF05150D96EDA6A010EDA
:10145600D926DE04D8A432EF0AF034EF0AF013EFEF
:101466000AF0F18A13EF0AF05150D96EDA6A010ECA
:10147600D926DF50D8A442EF0AF044EF0AF047EF2E
:101486000AF0F19813EF0AF05150D96EDA6A010E9C
:10149600D926DE04D8A452EF0AF054EF0AF013EF6F
:1014A6000AF0F18813EF0AF05150D96EDA6A020E8B
:1014B600D926DF50526E536A5350000AD8B466EFED
:1014C6000AF0F1EF09F05250000AD8B4F5EF09F02E
:1014D600010AD8B417EF0AF0030AD8B437EF0AF0B6
:1014E600F1EF09F054501200010E586E5150D8B465
:1014F6007FEF0AF081EF0AF091EF0AF05150D96EB2
:10150600DA6ADF30E832E832070B536E070E5364AF
:101516008FEF0AF091EF0AF0E8EF0AF0000E586E2E
:10152600FDEF0AF05150D96EDA6ADF30E832E83260
:10153600070B536E010E546E532AA4EF0AF0D8908F
:101546005436532EA2EF0AF05450FF0A556E5150EE
:10155600D96EDA6ADF50070B020DF3500B0FD96E06
:10156600DA6ADECF56F0DDCF57F056C0D9FF57C046
:10157600DAFF5550DF16FDEF0AF05150D96EDA6AE0
:10158600DF30E832E832070B536E010E546E532AF1
:10159600CFEF0AF0D8905436532ECDEF0AF05150C3
:1015A600D96EDA6ADF50070B020DF3500B0FD96EB6
:1015B600DA6ADECF55F0DDCF56F055C0D9FF56C0FA
:1015C600DAFF5450DF12FDEF0AF05250536E546AA0
:1015D6005450000AD8B4F2EF0AF091EF0AF05350D3
:1015E600000AD8B495EF0AF0010AD8B4C0EF0AF0A1
:1015F60091EF0AF0585012005350D8A405EF0BF0A3
:1016060007EF0BF036EF0BF0000E566E54EF0BF0B3
:101616005350D96EDA6A040ED926DECF51F0DDCFEB
:1016260052F08DEC0EF0010E566E54EF0BF0010EDB
:10163600566E5350D96EDA6A040ED926DECF51F0B3
:10164600DDCF52F07DEC0EF054EF0BF05350D96E17
:10165600DA6A040ED926DECF51F0DDCF52F06DECFA
:101666000EF016EF0BF05350D96EDA6A020ED92639
:10167600DF50546E556A5550000AD8B445EF0BF04A
:1016860007EF0BF05450000AD8B40BEF0BF0010A29
:10169600D8B41AEF0BF0030AD8B429EF0BF007EF12
:1016A6000BF056501200010E566E5150D8B45EEF34
:1016B6000BF060EF0BF070EF0BF05150D96EDA6A59
:1016C600DF30E832E832070B526E070E52646EEFD7
:1016D6000BF070EF0BF074EF0BF0000E566E9AEFF6
:1016E6000BF05150D96EDA6ADF30E832E832070B78
:1016F600526E010E536E522A83EF0BF0D89053367A
:10170600522E81EF0BF05150D96EDA6ADF50070B7B
:10171600020DF3500B0FD96EDA6ADECF54F0DDCF2F
:1017260055F054C0D9FF55C0DAFF5350DF1A565052
:1017360012005150D8A4A2EF0BF0A4EF0BF0B9EFB2
:101746000BF0000E546ED7EF0BF0F288F28EF28C8F
:10175600010E546ED7EF0BF0F086F28EF28CABEFE3
:101766000BF0F088F28EF28CABEF0BF05150D96E85
:10177600DA6A020ED926DF50526E536A5350000AB7
:10178600D8B4C8EF0BF0A4EF0BF05250000AD8B44F
:10179600A8EF0BF0010AD8B4AFEF0BF0030AD8B4E8
:1017A600B4EF0BF0A4EF0BF0545012005950D8A42C
:1017B600DFEF0BF0E1EF0BF0E3EF0BF00FEF0CF0C8
:1017C60047C05BF05950D96EDA6ADF50070B5A6E84
:1017D6005B505A18F80B5A185B6E5950D96EDA6A74
:1017E600DF30E832E832070B5A6E5A465A465A46F6
:1017F6005B505A18C70B5A185B6E5B9C5950D96ED2
:10180600DA6ADFAC02D05B8E01D05B9E5B0E516E56
:10181600000E526E77EC0AF012005150D8A416EF63
:101826000CF018EF0CF027EF0CF0000E546E45EF9D
:101836000CF0F292010E546E45EF0CF0F0901DEF95
:101846000CF0F0921DEF0CF05150D96EDA6A020ED0
:10185600D926DF50526E536A5350000AD8B436EF79
:101866000CF018EF0CF05250000AD8B41CEF0CF034
:10187600010AD8B421EF0CF0030AD8B424EF0CF017
:1018860018EF0CF0545012005150D8A44DEF0CF044
:101896004FEF0CF05EEF0CF0000E546E7CEF0CF088
:1018A600F298010E546E7CEF0CF0F09654EF0CF0AB
:1018B600F09854EF0CF05150D96EDA6A020ED92620
:1018C600DF50526E536A5350000AD8B46DEF0CF0D5
:1018D6004FEF0CF05250000AD8B453EF0CF0010A47
:1018E600D8B458EF0CF0030AD8B45BEF0CF04FEF06
:1018F6000CF0545012005750D8A484EF0CF086EF29
:101906000CF088EF0CF0B2EF0CF046C059F05750CF
:10191600D96EDA6ADF50070B586E59505818F80B13
:101926005818596E5750D96EDA6ADF30E832E83205
:10193600070B586E58465846584659505818C70B04
:101946005818596E599C5750D96EDA6ADFAC02D0D6
:10195600598E01D0599E590E516E56EC0BF012005D
:101966005C50D8A4B9EF0CF0BBEF0CF0BDEF0CF057
:10197600E7EF0CF049C05EF05C50D96EDA6ADF50D2
:10198600070B5D6E5E505D18F80B5D185E6E5C5061
:10199600D96EDA6ADF30E832E832070B5D6E5D46F3
:1019A6005D465D465E505D18C70B5D185E6E5E9CBB
:1019B6005C50D96EDA6ADFAC02D05E8E01D05E9ED4
:1019C6005E0E596EE8EC0CF012005950D8B4EEEFEA
:1019D6000CF0F0EF0CF000EF0DF05950D96EDA6A0A
:1019E600DF30E832E832070B5A6E070E5A64FEEF14
:1019F6000CF000EF0DF004EF0DF0000E5B6E15EF2E
:101A06000DF059C051F056EC09F05B6E59C051F01B
:101A16005950D96EDA6A000EDFBE010E526E77ECAF
:101A26000AF05B6E5B5012009DEC0EF0000E526EDB
:101A3600000E516E4A0E536E8EEC0DF05F6E4A0428
:101A4600D8A428EF0DF02AEF0DF02EEF0DF05CEC88
:101A56000EF022EF0DF0020E4A18D8A435EF0DF065
:101A660037EF0DF03BEF0DF04BEC0EF022EF0DF0E3
:101A7600DFEC0EF022EF0DF007EF00F05A50D8A47D
:101A860047EF0DF049EF0DF04DEF0DF0000E5B6ED8
:101A960069EF0DF05AC051F047EC0CF05B6E5AC07E
:101AA60051F010EC0CF05B6E5AC051F0E9EC09F005
:101AB6005B6E5AC058F038EC0EF05AC053F0FFEC8B
:101AC6000AF05AC051F09CEC0BF05B6E5B501200B2
:101AD600000EF2BE010E4E6E4C50030BAA6E4BC0AA
:101AE600A9FF4DC0A8FFA69EA69CA684F29E550EF1
:101AF600A76EAA0EA76EA682A6B284EF0DF086EF99
:101B06000DF07FEF0DF0A6944EB002D0F29E01D0FC
:101B1600F28E000E12005350D8A494EF0DF096EFFB
:101B26000DF09AEF0DF0000E546EABEF0DF0525023
:101B3600030BAA6E51C0A9FFA69EA69CA680000014
:101B460000005350D96EDA6AA8CFDFFF010E546E3B
:101B560054501200460EF66E1C0EF76E000EF86E0E
:101B660000EE01F010EE2AF00900F5CFEEFFE55089
:101B7600E150FAE100EE2BF0200EEE6AE806FDE1F8
:101B860060906092000117EF0DF0F0923B503C1010
:101B9600D8B4D0EF0DF0D2EF0DF0DEEF0DF002D895
:101BA600DEEF0DF00500FA6E3B50FD6E3C50FE6E0A
:101BB600FF6AFA5012001200F0903D503E10D8B461
:101BC600E7EF0DF0E9EF0DF0F5EF0DF002D8F5EFC8
:101BD6000DF00500FA6E3D50FD6E3E50FE6EFF6A3A
:101BE600FA5012001200F2923F504010D8B4FEEFA5
:101BF6000DF000EF0EF00CEF0EF002D80CEF0EF029
:101C06000500FA6E3F50FD6E4050FE6EFF6AFA50B8
:101C1600120012004A2A030E4A18D8A415EF0EF035
:101C260017EF0EF019EF0EF0000E4A6E000E4C6E16
:101C3600000E4B6E4AC04DF06BEC0DF05F6E12005D
:101C4600800F810F820F830F840F890F8A0F8B0FEE
:101C56008C0F8D0F920F930F940F950F960F010116
:101C66000101410100011A1C0A025850D8A43EEF96
:101C76000EF040EF0EF044EF0EF0000E596E49EFF5
:101C86000EF058C051F056EC09F0596E595012003A
:101C9600290E576E7EEC0CF0030E5B6E080E5A6E24
:101CA600770EE82EFED75A2EFCD75B2EFAD7000009
:101CB60012002A0E576E7EEC0CF0030E5B6E080EB9
:101CC6005A6E770EE82EFED75A2EFCD75B2EFAD721
:101CD6000000120051505210D8A474EF0EF076EFA7
:101CE6000EF078EF0EF07CEF0EF051C03BF052C0D4
:101CF6003CF0120051505210D8A484EF0EF086EF3B
:101D06000EF088EF0EF08CEF0EF051C03DF052C091
:101D16003EF0120051505210D8A494EF0EF096EFF8
:101D26000EF098EF0EF09CEF0EF051C03FF052C04F
:101D360040F01200230E5A6E41EC0DF05F6E2A0E33
:101D46005C6EB3EC0CF0290E5C6EB3EC0CF012007A
:101D56004B6EF2904B50D8A4B3EF0EF0B5EF0EF0E9
:101D6600B7EF0EF0B7EF0EF012004B6EF2904B503D
:101D7600D8A4C0EF0EF0C2EF0EF0C4EF0EF0C4EF21
:101D86000EF012004B6EF2904B50D8A4CDEF0EF031
:101D9600CFEF0EF0D1EF0EF0D1EF0EF012004B6E3A
:101DA600F2904B50D8A4DAEF0EF0DCEF0EF0DEEF37
:101DB6000EF0DEEF0EF012002A0E596ED9EC0BF083
:0A1DC600290E596ED9EC0BF0120043
:020000040020DA
:08000000FFFFFFFFFFFFFFFF00
:020000040030CA
:0E000000FF02091EFF8181FF0FC00FE00F40BD
:00000001FF
